:10000000009D0020D1CB010051040300BDCB0100B5
:10001000BDCB0100BDCB0100BDCB01000000000045
:100020000000000000000000000000006DCD010095
:10003000BDCB010000000000D9CC0100BDCB010008
:1000400029D00100793D020029D0010029D001000A
:1000500029D0010029D0010029D0010029D00100B8
:1000600029D0010029D001001588020029D0010003
:1000700029D0010029D0010029D0010029D0010098
:1000800029D0010029D0010029D0010029D0010088
:10009000DD3D020029D0010029D0010029D0010056
:1000A00029D0010029D0010029D0010029D0010068
:1000B00029D0010029D0010029D0010029D0010058
:1000C00029D0010029D0010029D0010029D0010048
:1000D00029D0010029D0010029D0010029D0010038
:1000E00029D0010029D0010029D0010029D0010028
:1000F00029D0010029D0010029D0010029D0010018
:10010000014B1B685B68184700050020014B1B680A
:100110009B68184700050020014B1B681B691847A6
:1001200000050020014B1B685B6918470005002093
:10013000014B1B689B69184700050020014B1B6899
:10014000DB69184700050020014B1B681B6A184734
:1001500000050020014B1B689B6A18470005002022
:1001600030B4044C9DF8085024680295E468A44615
:1001700030BC60470005002030B50246114890F9B8
:100180001C3093421ADD90F92430934218DAD31AC6
:10019000856A0D4CE85C235693420ED00E3400293C
:1001A0000CBF0346431CA542D8B206D129B1013A7F
:1001B000D2B2012A01D80130C0B230BD0D20FCE717
:1001C0000020FAE7A00F00204C27030008B5054BDC
:1001D00093F91C30984203DAFFF7CEFF024B1B560F
:1001E000184608BDA00F00204C27030010B51C4C7A
:1001F00094F82C3073B9012384F82C3000F09EF869
:1002000048B1184BA362D823236284F82430082312
:10021000A361237710BD00F0A7F80028F1D100F00A
:10022000ADF80028EDD100F06BF838B10E4BA362A9
:10023000D823236284F824300423E9E700F06AF825
:100240000028F3D100F070F80028EFD100F080F81A
:100250000028EBD140F2BF11742000F019F800BF64
:10026000A00F0020872703005A270300BFF34F8FFA
:100270000549064BCA6802F4E0621343CB60BFF342
:100280004F8F00BFFDE700BF00ED00E00400FA055E
:100290001FB572B6134B5D688DB9FFF7E7FFB2FB70
:1002A000F6F2DCB20133002AF9D104F110036B44F9
:1002B00003F80C2C0A2234B901A8A847EDE702463E
:1002C00000230A26EDE7631E04AEDCB256FA83F380
:1002D000B0FBF2F602FB1600303003F80C0C30468F
:1002E000E9E700BF401400204FF08052034BD2F8E2
:1002F00030111960D2F834215A6070477C14002004
:10030000034B1868A0F10F0358425841704700BFD3
:100310007C140020034B1868A0F10A03584258418E
:10032000704700BF7C140020034B1868A0F10E0337
:1003300058425841704700BF7C140020034B186896
:10034000A0F1100358425841704700BF7C140020B0
:10035000044B1868062803D0431C58425841704784
:10036000012070477C140020034B1868A0F10D0396
:1003700058425841704700BF7C140020034B186856
:10038000A0F1080358425841704700BF7C14002078
:1003900081F0004102E000BF83F0004330B54FEA36
:1003A00041044FEA430594EA050F08BF90EA020FA3
:1003B0001FBF54EA000C55EA020C7FEA645C7FEA36
:1003C000655C00F0E2804FEA5454D4EB5555B8BF59
:1003D0006D420CDD2C4480EA020281EA030382EACA
:1003E000000083EA010180EA020281EA0303362D5C
:1003F00088BF30BD11F0004F4FEA01314FF4801C2F
:100400004CEA113102D0404261EB410113F0004F40
:100410004FEA03334CEA133302D0524263EB4303F7
:1004200094EA050F00F0A780A4F10104D5F1200E95
:100430000DDB02FA0EFC22FA05F2801841F10001F0
:1004400003FA0EF2801843FA05F359410EE0A5F1C4
:1004500020050EF1200E012A03FA0EFC28BF4CF0F5
:10046000020C43FA05F3C01851EBE37101F00045AB
:1004700007D54FF0000EDCF1000C7EEB00006EEBB8
:100480000101B1F5801F1BD3B1F5001F0CD3490842
:100490005FEA30004FEA3C0C04F101044FEA445299
:1004A00012F5800F80F09A80BCF1004F08BF5FEA20
:1004B000500C50F1000041EB045141EA050130BD00
:1004C0005FEA4C0C404141EB0101013C28BFB1F512
:1004D000801FE9D291F0000F04BF01460020B1FA5D
:1004E00081F308BF2033A3F10B03B3F120020CDA30
:1004F0000C3208DD02F1140CC2F10C0201FA0CF00E
:1005000021FA02F10CE002F11402D8BFC2F1200C72
:1005100001FA02F120FA0CFCDCBF41EA0C01904028
:10052000E41AA2BF01EB0451294330BD6FEA040471
:100530001F3C1CDA0C340EDC04F11404C4F120025C
:1005400020FA04F001FA02F340EA030021FA04F36E
:1005500045EA030130BDC4F10C04C4F1200220FAC5
:1005600002F001FA04F340EA0300294630BD21FA03
:1005700004F0294630BD94F0000F83F4801306BFC9
:1005800081F480110134013D4EE77FEA645C18BFBD
:100590007FEA655C29D094EA050F08BF90EA020F54
:1005A00005D054EA000C04BF1946104630BD91EA4C
:1005B000030F1EBF0021002030BD5FEA545C05D14F
:1005C0004000494128BF41F0004130BD14F580048E
:1005D0003CBF01F5801130BD01F0004545F0FE4102
:1005E00041F470014FF0000030BD7FEA645C1ABF37
:1005F000194610467FEA655C1CBF0B46024650EA6E
:10060000013406BF52EA033591EA030F41F4002199
:1006100030BD00BF90F0000F04BF0021704730B51F
:100620004FF4806404F132044FF000054FF00001F4
:1006300050E700BF90F0000F04BF0021704730B5B5
:100640004FF4806404F1320410F0004548BF40428A
:100650004FF000013EE700BF42004FEAE2014FEADF
:1006600031014FEA02701FBF12F07F4393F07F4FBA
:1006700081F06051704732F07F4208BF704793F0BD
:100680007F4F04BF41F40021704730B54FF46074D0
:1006900001F0004521F000411CE700BF50EA0102D3
:1006A00008BF704730B54FF000050AE050EA01027C
:1006B00008BF704730B511F0004502D5404261EBEC
:1006C00041014FF4806404F132045FEA915C3FF42D
:1006D000D8AE4FF003025FEADC0C18BF03325FEACA
:1006E000DC0C18BF033202EBDC02C2F1200300FA7B
:1006F00003FC20FA02F001FA03FE40EA0E0021FAA0
:1007000002F11444BDE600BF70B54FF0FF0C4CF48D
:10071000E06C1CEA11541DBF1CEA135594EA0C0F3F
:1007200095EA0C0F00F0DEF82C4481EA030621EA7A
:100730004C5123EA4C5350EA013518BF52EA0335B5
:1007400041F4801143F4801338D0A0FB02CE4FF067
:100750000005E1FB02E506F00042E0FB03E54FF097
:100760000006E1FB03569CF0000F18BF4EF0010E8F
:10077000A4F1FF04B6F5007F64F5407404D25FEA8B
:100780004E0E6D4146EB060642EAC62141EA55513E
:100790004FEAC52040EA5E504FEACE2EB4F1FD0C80
:1007A00088BFBCF5E06F1ED8BEF1004F08BF5FEAFE
:1007B000500E50F1000041EB045170BD06F00046B0
:1007C00046EA010140EA020081EA0301B4EB5C045D
:1007D000C2BFD4EB0C0541EA045170BD41F4801155
:1007E0004FF0000E013C00F3AB8014F1360FDEBF7A
:1007F000002001F0004170BDC4F10004203C35DA56
:100800000C341BDC04F11404C4F1200500FA05F3D8
:1008100020FA04F001FA05F240EA020001F0004279
:1008200021F0004110EBD37021FA04F642EB0601EF
:100830005EEA430E08BF20EAD37070BDC4F10C0419
:10084000C4F1200500FA04F320FA05F001FA04F2DD
:1008500040EA020001F0004110EBD37041F10001C9
:100860005EEA430E08BF20EAD37070BDC4F12005D4
:1008700000FA05F24EEA020E20FA04F301FA05F23C
:1008800043EA020321FA04F001F0004121FA04F2E4
:1008900020EA020000EBD3705EEA430E08BF20EAB4
:1008A000D37070BD94F0000F0FD101F000464000EE
:1008B00041EB010111F4801F08BF013CF7D041EA70
:1008C000060195F0000F18BF704703F00046520074
:1008D00043EB030313F4801F08BF013DF7D043EA45
:1008E0000603704794EA0C0F0CEA135518BF95EAFB
:1008F0000C0F0CD050EA410618BF52EA4306D1D182
:1009000081EA030101F000414FF0000070BD50EAA0
:10091000410606BF1046194652EA430619D094EA2A
:100920000C0F02D150EA013613D195EA0C0F05D114
:1009300052EA03361CBF104619460AD181EA030168
:1009400001F0004141F0FE4141F470014FF0000020
:1009500070BD41F0FE4141F4780170BD70B54FF0BB
:10096000FF0C4CF4E06C1CEA11541DBF1CEA13553B
:1009700094EA0C0F95EA0C0F00F0A7F8A4EB05041D
:1009800081EA030E52EA03354FEA013100F0888014
:100990004FEA03334FF0805545EA131343EA1263DD
:1009A0004FEA022245EA111545EA10654FEA002692
:1009B0000EF000419D4208BF964244F1FD0404F54B
:1009C000407402D25B084FEA3202B61A65EB0305A7
:1009D0005B084FEA32024FF480104FF4002CB6EB64
:1009E000020E75EB030E22BFB61A754640EA0C00E4
:1009F0005B084FEA3202B6EB020E75EB030E22BF24
:100A0000B61A754640EA5C005B084FEA3202B6EB64
:100A1000020E75EB030E22BFB61A754640EA9C0023
:100A20005B084FEA3202B6EB020E75EB030E22BFF3
:100A3000B61A754640EADC0055EA060E18D04FEAB1
:100A4000051545EA16754FEA06164FEAC30343EA51
:100A500052734FEAC2025FEA1C1CC0D111F4801F1E
:100A60000BD141EA00014FF000004FF0004CB6E717
:100A700011F4801F04BF01430020B4F1FD0C88BFB6
:100A8000BCF5E06F3FF6AFAEB5EB030C04BFB6EBC1
:100A9000020C5FEA500C50F1000041EB045170BDB4
:100AA0000EF0004E4EEA113114EB5C04C2BFD4EBE1
:100AB0000C0541EA045170BD41F480114FF0000E65
:100AC000013C90E645EA060E8DE60CEA135594EAE1
:100AD0000C0F08BF95EA0C0F3FF43BAF94EA0C0FE4
:100AE0000AD150EA01347FF434AF95EA0C0F7FF459
:100AF00025AF104619462CE795EA0C0F06D152EAAD
:100B000003353FF4FDAE1046194622E750EA410690
:100B100018BF52EA43067FF4C5AE50EA41047FF4A1
:100B20000DAF52EA43057FF4EBAE12E74FF0FF3C06
:100B300006E000BF4FF0010C02E000BF4FF0010CD7
:100B40004DF804CD4FEA410C7FEA6C5C4FEA430C50
:100B500018BF7FEA6C5C1BD001B050EA410C0CBF9F
:100B600052EA430C91EA030F02BF90EA020F002001
:100B7000704710F1000F91EA030F58BF994208BF68
:100B800090422CBFD8176FEAE37040F00100704725
:100B90004FEA410C7FEA6C5C02D150EA013C07D17C
:100BA0004FEA430C7FEA6C5CD6D152EA033CD3D0C7
:100BB0005DF8040B704700BF8446104662468C46C1
:100BC0001946634600E000BF01B5FFF7B7FF0028F4
:100BD00048BF10F1000F01BD4DF808EDFFF7F4FF1D
:100BE0000CBF012000205DF808FB00BF4DF808EDA8
:100BF000FFF7EAFF34BF012000205DF808FB00BFCB
:100C00004DF808EDFFF7E0FF94BF012000205DF8EC
:100C100008FB00BF4DF808EDFFF7CEFF94BF0120A1
:100C200000205DF808FB00BF4DF808EDFFF7C4FF9A
:100C300034BF012000205DF808FB00BF4FEA410CE3
:100C40007FEA6C5C02D150EA013C0AD14FEA430CC6
:100C50007FEA6C5C02D152EA033C02D14FF0000003
:100C600070474FF0010070474FEA410212F5001241
:100C700015D211D56FF47873B3EB625212D94FEAE3
:100C8000C12343F0004343EA505311F0004F23FACD
:100C900002F018BF404270474FF00000704750EA22
:100CA000013005D111F0004008BF6FF000407047DF
:100CB0004FF00000704700BF4FEA4102B2F1E0433D
:100CC00024BFB3F5001CDCF1FE5C0DD901F0004C33
:100CD0004FEAC0024CEA5070B2F1004F40EB830083
:100CE00008BF20F00100704711F0804F21D113F1AF
:100CF0003872BCBF01F00040704741F480114FEAE8
:100D00005252C2F11802C2F1200C10FA0CF320FA70
:100D100002F018BF40F001004FEAC1234FEAD3238D
:100D200003FA0CFC40EA0C0023FA02F34FEA4303F7
:100D3000CCE77FEA625307D150EA01331EBF4FF080
:100D4000FE4040F44000704701F0004040F0FE409B
:100D500040F40000704700BF7BB972B90029BEBFE4
:100D600000204FF0004106E008BF00281CBF6FF0D4
:100D700000414FF0FF3000F077B8ADF1080C6DE99D
:100D800004CE002909DB002B1ADB00F006F9DDF8A0
:100D900004E0DDE9022304B07047404261EB410109
:100DA000002B1BDB00F0F9F8DDF804E0DDE902239D
:100DB00004B0404261EB4101524263EB4303704790
:100DC000524263EB430300F0E8F8DDF804E0DDE9AC
:100DD000022304B0404261EB41017047524263EB91
:100DE000430300F0DAF8DDF804E0DDE9022304B0A3
:100DF000524263EB4303704753B94AB9002908BF15
:100E000000281CBF4FF0FF314FF0FF3000F02CB82E
:100E1000ADF1080C6DE904CE00F0BFF8DDF804E098
:100E2000DDE9022304B07047D0B5FFF715FC0C4B89
:100E3000002206460F46FFF767FC00F017F804464D
:100E4000FFF7E8FB074B0022FFF75EFC02460B466C
:100E500030463946FFF7A0FA00F008F82146D0BD29
:100E60000000F03D0000F041704700BF4A0011D281
:100E700012F5001211D20DD56FF47873B3EB6252F4
:100E80000ED44FEAC12343F0004343EA505323FA00
:100E900002F070474FF00000704750EA013002D175
:100EA0004FF0FF3070474FF00000704710F8012BF3
:100EB00011F8013B012A28BF9A42F7D0D01A704797
:100EC000034613F8012B002AFBD1181A013870478A
:100ED00008B5FFF709FABDE80840FFF787B970B514
:100EE000841A04F307040E4660B259B21546FFF7A0
:100EF0006DF9002330702844737040B270BD002338
:100F0000036070477047002070474FF0FF30704714
:100F10004FF0FF30704770474FF0FF3070470020B0
:100F20007047002070470023037070479DF8003021
:100F30000022FFF7D4BF002070474FF0FF3070470A
:100F40004FF0FF3070474FF0FF3070477047002878
:100F50000CBF6FF01500002070470020704707237A
:100F6000037000207047002070470020704707EE94
:100F7000900AF5EEC07AF1EE10FA08B503D4BDE898
:100F80000840FFF751BFF1EE677A17EE900AFFF7BE
:100F90004BFF404261EB410108BD2DE9F047864619
:100FA0008C460846089E154674461946002B40F0AC
:100FB000C2808542B2FA82F245D94AB1C2F1200319
:100FC00000FA02FC2EFA03F3954043EA0C0C94401D
:100FD0004FEA154EA8B2BCFBFEF8230C0EFB18CC52
:100FE00008FB00F943EA0C43994528D9EB1808F1AE
:100FF000FF3704D2994502D9A8F102072B44A3EB8D
:101000000903A4B2B3FBFEFC0EFB1C330CFB00F087
:1010100044EA0344A04214D92C190CF1FF3304D242
:10102000A04202D9ACF102032C44241A43EA07403F
:101030001EB1D440002334607360BDE8F08747469A
:10104000DDE76346F1E792BB431B01214FEA154EF2
:10105000AFB2B3FBFEFC200C0EFB1C330CFB07F8FD
:1010600040EA0343984562D9EB180CF1FF3004D2F3
:10107000984502D9ACF102002B44A3EB0803A4B2BB
:10108000B3FBFEFC0EFB1C330CFB07F744EA0344E6
:10109000A7424ED92C190CF1FF3304D2A74202D932
:1010A000ACF102032C44E41B43EA0040C0E7C2F168
:1010B000200320FA03F1954090402EFA03F30343F6
:1010C0004FEA154EAFB2B1FBFEFC0EFB1C10190C23
:1010D0000CFB07F841EA0041884504FA02F422D9E2
:1010E00069180CF1FF3004D2884502D9ACF1020036
:1010F0002944A1EB08019BB2B1FBFEFC0EFB1C11C5
:101100000CFB07F743EA01439F420ED9EB180CF1A1
:10111000FF3104D29F4202D9ACF102012B44DB1B08
:1011200041EA004192E76046E3E76146F7E760463F
:10113000A3E76346B7E7834206D916B900210846FC
:101140007BE7C6E900E0F9E7B3FA83F78FB983429A
:1011500001D3724508D8BEEB020460EB0303012003
:101160009C461EB9002168E73846FAE7C6E9004CFC
:10117000F8E7C7F1200CBB4022FA0CF41C432EFA0E
:101180000CF120FA0CF3B84001434FEA14490EFA6F
:1011900007F5B3FBF9F81FFA84FE09FB18300B0CB6
:1011A00008FB0EFA43EA00439A4502FA07F240D9D7
:1011B000E31808F1FF3004D29A4502D9A8F10200E1
:1011C0002344A3EB0A0389B2B3FBF9F809FB1833F4
:1011D00008FB0EFE41EA03418E452CD9611808F147
:1011E000FF3304D28E4502D9A8F10203214443EA19
:1011F0000040A0FB0298A1EB0E014145CE464346BC
:1012000002D306D14D4504D2B9EB020E68EB0403BC
:101210000138002EA6D0B5EB0E0261EB030101FAF6
:101220000CFC22FA07F34CEA0303F940C6E900314B
:1012300098E74046C5E74346D9E7000000000000B4
:10124000F0B514461A4AA0FB020302FB0131C00BA1
:1012500085B040EA414014A3D3E90023C90BFFF74E
:10126000CBFD0546194610460023124AFFF7C4FD80
:1012700006461946104600230D4AFFF7BDFD0746F6
:101280001946104600234FF47A72FFF7B5FD009718
:10129000CDE90102334608482A4621462EF046F998
:1012A00005B0F0BDAFF3008000A493D600000000AD
:1012B00040420F00008793030B4A03000000000028
:1012C0002DE9F04FC7B01AF015FE18F04DFC0028BC
:1012D00040F0CD80002140F6CD402AF0C5F96648A7
:1012E000664C674D2EF022F966482EF01FF907F084
:1012F00065F8654B18681B798DF84C30634B12907C
:1013000018681B798DF85430614B14909A881868CE
:101310009B798DF87E305F4BADF87C209A88ADF8D4
:1013200084205D4A1E90186851689B79209010684F
:101330008DF8863026AB03C3584B594A186851685C
:101340001B79169010688DF85C3028AB03C31289A6
:101350001A80544B18689A889B798DF88E30524BBE
:101360002290CDE90943514BADF88C2018681B79C8
:101370008DF864304E4B189018689B88ADF8743027
:101380004C4B4D4A1C90186851681B791A90106894
:101390008DF86C302BAB03C31189927A19809A7047
:1013A000464B0B93A3F54023454AA3F61973CDE9A9
:1013B0000C34444B10685168CDE90E352EAB03C395
:1013C00090681860404B34AA03F108061868596801
:1013D000144603C40833B3422246F7D13B4A186887
:1013E00020601B7910685168237131AB03C390688A
:1013F0001860374B38AA03F1080618685968144674
:1014000003C40833B3422246F7D118681B7923710D
:10141000304B20609A8818689B798DF896302E4B57
:1014200010952490ADF8942011931AF04BFD1422DE
:101430000746002141A830F044FB052241A9384667
:1014400007F064FB06460028EFD0419806F0A6FF9F
:10145000012E02D0429806F0A1FFDDF8048112A906
:101460004046FFF723FDC8BB06F0A8FFDDE70120DB
:101470002AF036F929E700BF9B4A03006D61670037
:10148000616C6C00D64A03007C5003004696030052
:101490008150030088500300C69403002D8C030084
:1014A0008F5003009950030073657400A05003002F
:1014B000A550030041510300AB5003007A726F0046
:1014C000B650030062617400C2500300CF500300A5
:1014D000DB500300E85003006E76730014A9404609
:1014E000FFF7E4FC0546002840F01C82CC48CD4CB8
:1014F0002EF01CF8CC482EF019F8CC482EF016F837
:1015000017230A21CDE901310F23092240F2EA71A4
:10151000C74800930E232EF009F8C6482EF006F8AF
:10152000C5482EF003F8C5482EF000F8C4482DF049
:10153000FDFF2368B3F8763303F07F037F2B00F0C1
:10154000B88111F0E1FB0146BE482DF0EFFF2368A2
:1015500093F87A33FF2B08D013F0800FBA4BBB49B6
:10156000BB4818BF19462DF0E1FF2368B94893F82E
:101570007A23B3F876132DF0D9FF2368B3F87833C4
:1015800003F07F037F2B00F0968111F0CDFB014625
:10159000B1482DF0CBFF236893F87B23FF2A10D0AE
:1015A00012F0800FB3F87833A74AA849AB4818BFA8
:1015B000114613F0800FAA4BAA4A18BF1A462DF005
:1015C000B5FF2368A34893F87B23B3F878132DF075
:1015D000ADFFA54B1B68DB889A0640F16E81A348DE
:1015E000DFF8C0A22DF0A2FF0027266806EB8706D1
:1015F0000137D6F84401FFF72FF88046D6F8680186
:101600008946FFF729F8CDE90401D6F85C01FFF718
:1016100023F8CDE90201D6F85001FFF71DF8424644
:10162000CDE900014B4650462DF080FF032FDCD161
:10163000D4F80080DFF86C92D8F8FC00FFF70CF8C3
:101640000646D8F804010F46FFF706F8CDE9020177
:10165000D8F80001FFF700F83246CDE900013B461B
:1016600083482DF063FF83482DF060FF236803EB70
:1016700085080135D8F81401FEF7EEFF0646D8F8C4
:1016800038010F46FEF7E8FFCDE90401D8F82C0138
:10169000FEF7E2FFCDE90201D8F82001FEF7DCFFFA
:1016A0003246CDE900013B4648462DF03FFF032D71
:1016B000DCD111F049FB01466F482DF037FF60483F
:1016C0002DF034FF23686D4893F8655093F8661049
:1016D0006B4B002D08BF18462DF028FF4FF08052AD
:1016E0006848D2F8A830D2F8A4209BB22DF01EFF93
:1016F00022686549D2F869306448B2F86720002D45
:1017000018BF084642EA03421B0C2DF00FFF4C485D
:101710002DF00CFF12F06EFB834612F079FB12F0F5
:10172000C7FA824612F07AFB07460E4612F068FCB2
:101730000546894612F078FBBBF1000F0446884647
:1017400040F3E18030F049F9514AC01B61EB0603D8
:10175000A0FB020102FB0311C00B40EA41402EA393
:10176000D3E90023C90BFFF747FB194606460023C0
:101770001046484AFFF740FB074650461EB9FBB2E9
:10178000002B00F0B480FEF755FF434B0022FFF71B
:10179000E5F8CDE9006702460B4640482DF0C6FE4D
:1017A00055EA090300F0B680394BA5FB030103FBA2
:1017B0000911C00B40EA414017A3D3E90023C90B2C
:1017C000FFF71AFB0546194610460023314AFFF77A
:1017D00013FB2946024632482DF0A8FE54EA0803BE
:1017E00000F09C802A4BA4FB030103FB0811C00BF3
:1017F00040EA414008A3D3E90023C90BFFF7FCFAF4
:101800000446194610460023224AFFF7F5FA02461D
:101810004AE000BFAFF3008000A493D600000000B0
:10182000FD4A030038070020D64A0300304B03006E
:10183000464B03006A4B03007E4B03008D4B0300B5
:10184000969E0300AA4B0300374A0300D78003008B
:10185000B34B0300C24B0300D74B0300EA4B03001A
:101860003B4A0300979E030034070020FB4B030014
:101870004D4C03006D4C0300834C0300464A0300AB
:10188000564A0300904C0300684A0300834A030051
:1018900040420F000087930300005940A94C030009
:1018A000044D0300134C0300C34821462DF03EFEB7
:1018B000BBE5C24948E6C1496AE6D4F80080D8F8D9
:1018C000F000FEF7C9FE0646D8F8F8000F46FEF70E
:1018D000C3FECDE90201D8F8F400FEF7BDFE3246A2
:1018E000CDE900013B46B6482DF020FEA0E6FEF70C
:1018F000A1FEB44B0022FFF731F802460B46B24876
:101900002DF014FE4CE73E430CBFB048B0482DF01C
:101910000DFE45E7AF482DF009FE5FE7AE482DF01C
:1019200005FE82E51EA94046FFF7C0FAB0B930F0C7
:1019300054F8AA4A0D460446FFF782FCA84B1B68E0
:10194000D3E90401D3E90223801A61EB03010019F2
:10195000A44A41EB0501FFF773FC66E520A9404668
:10196000FFF7A4FA10B92DF014F85EE526A9404659
:10197000FFF79CFA002840F00D8112F035FA01467D
:1019800099482DF0D3FD12F035FA804612F040FA56
:10199000814612F08DF9064612F040FAB8F1000FB8
:1019A00004460D4640F3D6803046FEF743FE854B95
:1019B0000022FEF7D3FF064648460F46CDF80880C2
:1019C000FEF738FE7F4B0022FEF7C8FF3246CDE916
:1019D00000013B4685482DF0A9FD54EA050300F0BF
:1019E000BD802FF0FAFF001B814A61EB0501FFF774
:1019F00027FC12F019FA8146884612F065FA07466C
:101A00000E4612F0AFFA05460C4612F0F9FA50EA0B
:101A1000010300F0A780774AFFF712FC59EA080398
:101A200000F0A480744A48464146FFF709FC57EA93
:101A3000060300F09F80714A38463146FFF700FCEC
:101A400055EA040300F09A806D4A28462146FFF7C4
:101A5000F7FB2CF037FF05462CF041FF04462846E3
:101A600012F026F98246204612F022F980462CF028
:101A700043FF45EA04031B0407460E4600F182803B
:101A800050EA01037ED04046FEF7D4FD4D4B0022C4
:101A9000FEF764FF804628468946FEF7CBFD494B9A
:101AA0000022FEF75BFFCDE904012046FEF7C2FDF0
:101AB000444B0022FEF752FFCDE902015046FEF7EB
:101AC000B9FD404B0022FEF749FF4246CDE9000137
:101AD0004B464C482DF02AFD4B4A38463146FFF71D
:101AE000AFFB12F0F3FA064612F016FB044612F0B2
:101AF0002BFB44EA00030746180447D42046FEF7B0
:101B000099FD304B0022FEF729FF06EB86060446BE
:101B1000F0B20D46FEF77EFDCDE902013846FEF734
:101B200089FD284B0022FEF719FF2246CDE900016E
:101B30002B4636482DF0FAFC12F0A4FAFEF76AFDA7
:101B4000334B0022FEF70AFF02460B4631482DF0C8
:101B5000EDFC6AE430482DF0E9FC3EE72F482DF01B
:101B6000E5FC46E71B482DF0E1FC57E71A482DF04D
:101B7000DDFC5CE72A482DF0D9FC61E729482DF00F
:101B8000D5FC66E728482DF0D1FCAAE727482DF0C0
:101B9000CDFCD1E716A94046FFF788F918B9012016
:101BA00011F000FD41E428A94046FFF77FF9002825
:101BB0003ED108F0D1FD38E4444D0300294A03002A
:101BC000284C030000005940CF4C0300E04C0300B8
:101BD000D24D0300224D0300664D03008C4D0300DF
:101BE00038070020934D03009F4D0300AB4D0300C9
:101BF000E14D0300034E0300164E03002C4E03007C
:101C00005C4E03008C4E0300CC4E0300FB4E0300E1
:101C100000003440404F0300D14D0300EE4D03005F
:101C20003C4E03006C4E0300DF4E03002C4F0300BC
:101C300022A94046FFF73AF918B908F0A1FDFFF7CD
:101C4000F4BB09A94046FFF731F928B9012100206A
:101C500007F080FBFFF7E9BB0AA94046FFF726F92A
:101C600000BB022E01D0B14859E6429810212CF059
:101C700085F9AF4ACDE9000105460C463CA8112183
:101C80002DF061FC55EA04030AD042993CA8FFF705
:101C90000DF928B92846214606F0C6FAFFF7C5BB5C
:101CA000A4483CE618A94046FFF700F918B906F029
:101CB000ADFAFFF7BABB1CA94046FFF7F7F818B911
:101CC00006F00EFBFFF7B1BB1AA94046FFF7EEF88E
:101CD000002838D12FF081FE41F248220023FFF77F
:101CE0003BF810461946EA220023FFF735F8044670
:101CF0001946104600232722FFF72EF816461D46E8
:101D0000C7B22946304603220023FFF725F88A4B45
:101D1000D2B2304613F8028029460D220023FFF785
:101D20001BF8864B864AC0B2E4B253F820300093C9
:101D3000844B52F8242053F82730834841462DF035
:101D4000F5FBFFF772BB2BA94046FFF7AFF890BB3E
:101D5000022E88D1429C0BA92046FFF7A7F8014626
:101D600020B9012207F0B4F9FFF75FBB0CA92046A8
:101D7000FFF79CF820B9012107F048FAFFF755BB9F
:101D80000DA92046FFF792F800283FF45FAF0EA997
:101D90002046FFF78BF818B912F0ECF9FFF745BBB6
:101DA0000FA92046FFF782F818B913F02BFFFFF7B1
:101DB0003CBB6648B3E52EA93846FFF777F80446E2
:101DC000E0B9DFF8B081624F0646214640462DF06B
:101DD000ADFB604B33F8149000257119A94589B209
:101DE00005DC0134042C3FF420AB0E46EDE757F838
:101DF000212059482DF09AFB0135EEE734A94046E1
:101E0000FFF754F80446002840F0B680032E7FF414
:101E10002AAF429824A9FFF749F8054638BB80202D
:101E20002AF03EFBAC2300933CAA439BADF8F05054
:101E30008021044616F046FC054608B147486EE589
:101E4000474E30688022214600F55F702FF011FE6A
:101E500004F06AFA3268802302F55F7229461E2078
:101E600013F0CEFD20462FF0E2FD3E4857E50A2153
:101E70004398DFF8E0A02CF064F8DDF808B10546DF
:101E8000584606F0F9FA324A804623463AF8021BD1
:101E90000691002721E0B8F1000F1BDA079352F8F2
:101EA00026105846FFF702F8294A079BA0B9022CD2
:101EB00028D0032C30D0012C1CD0012D31D805F0B6
:101EC0000101484604F07EFA214B274853F82610BA
:101ED0002A46EBE4B045EAD00137069913FA87F6B3
:101EE0008F421FFA87F9B6B2D5DB0134042C1AD021
:101EF0003346CBE7012D14D805F00101484604F024
:101F000083FAE1E705F50043B3F5803F09D229B232
:101F1000484604F099FAD7E72946484604F0AEFA55
:101F2000D2E71248FBE41248F9E400BF544F030023
:101F3000714F0300794F0300EF500300782803002E
:101F4000C4280300AC2803008A4F0300B74F0300E6
:101F5000C0060020283F0300D54F0300DD4F0300DB
:101F600038070020F44F0300045003001B50030007
:101F70002A500300C94F030031A93846FEF796FFE7
:101F8000002840F09F80022E7FF46DAE429F10A982
:101F90003846FEF78BFF044678BBDFF8EC81DFF8AC
:101FA000DC9106461CE0022CD9F800201CD0032C42
:101FB0001FD0012C14BF5288D2882A4102F001029E
:101FC0006A496B4851F823102DF0B0FA01357319A6
:101FD000BD429BB2E7DB0134042C3FF426AA1E4627
:101FE00038F814700025F2E702EB4502B2F90A2036
:101FF000E6E702EB8502D26AE2E724A93846FEF75B
:1020000055FFC8B9AD202AF04BFA0023ADF8F030E7
:10201000584B1B6880220446009203F55F733CAA6C
:10202000AD2116F0CFFA544821462DF07FFA204614
:102030002FF0FDFCFFF7F9B9384606F01DFA002530
:10204000DFF844A1494B8046A9463AF802BB002478
:102050002DE0B8F1000F1BDA53F826103846FEF7D2
:1020600025FF424BB0FA80F04009F8B1434B022DF6
:102070001B6812D0032D15D0012D14BF5A88DA88A1
:10208000224102F00102394B394853F826100DE481
:10209000A6EB080148424841E7E703EB4403B3F9E4
:1020A0000A20F0E703EB8403DA6AECE7013409EB7A
:1020B00004065C45B6B2CCDB0135042D3FF433AFEA
:1020C000B146C2E738A93846FEF7F0FE002841D1F4
:1020D000022E7FF4C8AD429F10A93846FEF7E6FEF7
:1020E00018B904F01BFAFFF7A0B9384606F0C4F996
:1020F0000024DFF894801D4B0646A14638F802BB49
:1021000000251AE0002E13DA53F820103846FEF7A7
:10211000CDFE164BB0FA80F0400968B15146A0B22E
:1021200004F0C6F9429916482DF000FAFFF77DB980
:10213000321A50425041F0E7013519FA85F05D45F9
:102140001FFA85FA80B2DDDB0134042C3FF4EBAEDC
:102150008146D3E711A93846FEF7A8FE18B913F057
:1021600095FDFFF762B90748FFF7D9BBC00600200D
:102170004550030038070020AF4B03003407002010
:10218000595003006B500300283F0300000000007B
:102190002DE9F04F89B01F46DB000593139B039098
:1021A000DB000493139B079223EAE373DB000D46E5
:1021B00006934FF00008079B98452BDB09B0BDE85C
:1021C000F08FDBE90023F4E80201FEF79DFA0B46ED
:1021D0000246DDE90001FEF7E1F8049BCDE90001CC
:1021E0009B4409F101099DED007BB9458AED007B17
:1021F000E7DB0AF1080A0136129B03EBC60B139BBF
:102200009E420BDA9FED0A7B2C468DED007B4FF052
:102210000009E8E7DDF80CA00026EDE7069B039A2D
:102220001A44059B03921D4408F10108C3E700BF4F
:1022300000000000000000002DE9F74F0F461C468B
:102240001946064638469046651E0FF0F7FEA31E57
:102250009FED257B9FED266BE24304FB03316FF07E
:10226000070004FB0545183E4FEAC409D20007EBFE
:10227000C101A0EBC400ED000196A7F1100B002BEB
:1022800002DC03B0BDE8F08F019E03F1010C2E4487
:102290000BEB050EA44512DB58F823609E420AD0D2
:1022A00004FB063607EBC606B6468A469C46A4459E
:1022B00010DB86ED006B013B11440544DFE796ED32
:1022C000005B0CF1010C8EED005B86ED007BCE44D3
:1022D0004E44DFE79EED005B0CF1010CAAEC025BC3
:1022E000AEEC027BE3E700BF00000000000000004E
:1022F000000000000000F03F2DE9F04F2DED048BB1
:102300008FB0DDE91C541F4604FB05F300EBC3034B
:1023100003EBC40999ED007B4FEAC40808F10806F5
:1023200003EBC50B03930BEB0603CDE90C010992FC
:1023300051EC170B0293D3E900238DED0A0B8DEDC1
:10234000047BFEF729F87E4B0022FEF7DDF90BEB4C
:1023500008030893039BCDE900019919089BD1E973
:102360000001D3E90023FEF7CFF9DDE90023CDE931
:10237000060110461946FEF7C7F9DDE90623FEF708
:102380000DF8DDE90A2382468B46DDE90401FEF7FC
:1023900005F8C9E90001029BDDE90A01D3E9002340
:1023A000FDF7FCFF029BC3E90001099B03EB080951
:1023B00033440993BB19CDE904010A930022002399
:1023C00050465946B844FEF72FFC002800F0938091
:1023D0004BEC10AB2AF05EFD00220023DDE900018A
:1023E00057EC106BFEF702FC32463B4600287DD0CE
:1023F000DDE90001FDF7D0FF82468B4602460B4621
:10240000DDE90401FDF7CAFF5246C9E900015B4658
:10241000DDE90601FEF7A2FA0B4602990246D1E970
:102420000001FDF7B9FF099B9FED437BC3E9000164
:102430000A9B88ED007B83ED007B089BD3E9008934
:1024400042464B4640464946FEF75EF9524606462E
:102450000F465B4650465946FEF756F902460B4674
:1024600030463946FDF79AFF41EC100B2AF012FD79
:1024700057EC106B404632463B464946FEF76EFA33
:102480003B4641EC190B324650465946FEF766FA78
:10249000B0EE491AF0EE691A41EC180B2246039887
:1024A000B0EE480AF0EE680A29462BF0F8FFB0EECD
:1024B000491AF0EE691AB0EE480AF0EE680A0C9874
:1024C000224629462CF030F8B0EE491AF0EE691A8F
:1024D000B0EE480AF0EE680A0D98224629460FB081
:1024E000BDEC048BBDE8F04F2CF06CB8DDE90001C9
:1024F000FDF754FF80E7DDE90023DDE90401FDF786
:102500004DFF099B5246C9E90001C3E900012BF0C8
:10251000004343EC102B2AF0BDFC54EC103B0A9A0C
:1025200088ED000BBB5104F1004353600FB0BDECCC
:10253000048BBDE8F08F00BF000000000000000029
:102540000000E03F000000002DE9F04FA9B059EC79
:10255000118B0693531E19920793339A069B18907A
:1025600002FB03F4069B2791DB000A93069B00EB1A
:10257000C40404EBC30BDBE900679D18304653EC41
:10258000102B39468DED000BFDF706FF32463B461A
:10259000FEF7BAF804EBC50A42464B46FDF7FEFECD
:1025A000DAE90023FEF7DAF9DBE90223FDF7F6FEAC
:1025B000DAE902238046894630463946FDF7EEFEC9
:1025C000DDE90023FDF7E8FE339B1D4404EBC50560
:1025D00095ED027B06460F46404629F00041324603
:1025E00027F000438DED007BFDF7D8FEDDE90025E7
:1025F00025F00043FDF7D2FECDE9080102460B4667
:1026000040464946FEF7AAF9DDE908238046894697
:1026100030463946FEF7A2F9DDE90823CDE902018B
:10262000DDE90001FEF79AF9339BDB000D930833D7
:102630001293CDE90001CDF820A0069B339ADDF876
:1026400018A003EB420304EBC3030C930A9B083B63
:1026500004EB030B079B9A4502DD29B0BDE8F08F20
:10266000069B9A4548DD079B9A4500F0E4800C9B49
:1026700013ED027B089BDBE9006753E9024527F075
:102680000043CDE91B3425F000431A961D93DDE984
:102690001C23DDE91A018DED007BFDF77FFE009B19
:1026A0001E93019B23F000431F93DDE91E23FDF7DA
:1026B00075FE02460B46CDE9042300220023FEF7F7
:1026C0008BFA002840F0AC80DDE90423304639461F
:1026D000FEF744F9DDE90423804689462046294671
:1026E000FEF73CF9DDE90423CDE90201DDE9000153
:1026F000FEF734F9CDE9000142464B4640464946D3
:10270000FEF702F8DDE9022304460D46104619469D
:10271000FDF7FAFF02460B4620462946FDF73EFE2E
:10272000DDE9002304460D4610461946FDF7ECFF8F
:1027300002460B4620462946FDF730FE41EC100BC1
:102740002AF0A8FB002200234046494655EC104BD6
:10275000FEF74CFA28B105F1004320942193DDE9FE
:102760002045069B9A4569DD05F100432393229499
:10277000DDE90423DDE92201FDF7C6FFCBE9000115
:1027800022462B4640464946FDF708FE22462B4688
:1027900080468946FEF7E2F822462B46CDE9040141
:1027A000DDE90201FEF7DAF822462B46CDE90E01FB
:1027B000DDE90001FEF7D2F84246CDE910014B46B3
:1027C000DDE90201FEF7CAF84246CDE902014B46B7
:1027D000DDE90001FEF7C2F8CDE900010C9D089C7F
:1027E0000BF108065746339B9F4238DB199A189C19
:1027F0000AF103039342A8BF134626934FEACA0384
:102800000A93083313930A9B103314930025269BD5
:10281000AB4273DA329C0025339B9D42C0F2C980E3
:10282000129A089B134408930C9B13440AF1010A63
:102830000C9393440EE79FED8C7B1BE7069B279A36
:1028400093429DD0DBF800302493DBF8043003F191
:10285000004325939DED247B8BED007B90E7D4E92D
:102860000023DDE902010A94FDF74EFFD6E90023BB
:10287000FDF794FD079B9A45804689461FD095ED4C
:10288000007BDDE9002351EC170B8DED0A7BFDF792
:102890003BFF02460B4640464946FDF77FFD024698
:1028A0000B4680468946DDE91001FDF72DFF024603
:1028B0000B46DDE90A01FDF76FFDC5E90001DDE921
:1028C0000E2340464946FDF71FFF02460B46D4E95A
:1028D0000001FDF761FDDDE90423E4E80201404663
:1028E0004946FDF711FF02460B46D6E90001FDF708
:1028F00053FD0137E6E80201083574E70A9BE61844
:10290000139BDDE904011F19D6E90023FDF7FCFE46
:10291000D7E9002380468946DDE90E01FDF7F4FE84
:102920000B46024649464046FDF738FD079B9A454F
:102930008046894623D0149B234493ED007B159356
:1029400051EC170BDDE910238DED167BFDF7DCFE56
:1029500002460B4640464946FDF720FD02460B461F
:1029600080468946DDE90001FDF7CEFE0B460246B2
:10297000DDE91601FDF710FD159BC3E90001DDE956
:10298000022340464946FDF7BFFE02460B46D7E903
:102990000001FDF701FDC7E900014B46D6E9000142
:1029A0004246FDF7F9FC0D9BC6E9000101351C44C8
:1029B0002DE70A9BE618139BDDE904011F19D6E9F0
:1029C0000023FDF7A1FED7E9002380468946DDE913
:1029D0000E01FDF799FE0B46024649464046FDF7BB
:1029E000DDFC079B9A458046894623D0149B2344EF
:1029F00093ED007B159351EC170BDDE910238DED62
:102A0000167BFDF781FE02460B4640464946FDF720
:102A1000C5FC02460B4680468946DDE90001FDF70C
:102A200073FE0B460246DDE91601FDF7B5FC159B6A
:102A3000C3E90001DDE9022340464946FDF764FE93
:102A400002460B46D7E90001FDF7A6FCC7E90001E5
:102A50004B46D6E900014246FDF79EFC0D9BC6E9B8
:102A600000011C440135D7E6000000000000000012
:102A70002DE9F04FA7B01D46309B249103FB05F4D0
:102A800000EBC4049A491790EB001493002004EB68
:102A9000C503C3E9000130990793CE00C6EBC50317
:102AA0001C446FF007039B1B9FED8F7B1593079BC7
:102AB000CDE91043249B8DED220B8DED0A7B8DED2E
:102AC000027B02EBC50203EBC50305F1FF3B169247
:102AD000AA462593149BBBF1000FA4EB030902DA6D
:102AE00027B0BDE8F08F259B109993ED007B51E94D
:102AF000020153EC172B8DED127BFDF74DFC09EB1A
:102B0000CA031F46309B94ED007B03FB0AF8149B1D
:102B1000CDE9040103EBC8088DED007B179BD1467E
:102B20009844A94549DB169B33ED027B002216939E
:102B300051EC170B00238DED0C7BFEF757F830BBE3
:102B4000DDE90C0100220023FEF746F8002849D0F9
:102B5000009B0E93019B03F100430F93DDE90401F9
:102B600000220023FEF738F8002838D1DDE90423DD
:102B7000DDE90E01FDF7F2FEC4E900019DED0A7BDF
:102B80008DED007B9DED027B8DED047BDA46079B8E
:102B9000159A9B1B9DED007B0793109B13448DEDB5
:102BA0000A7B10939DED047B119B13448DED027BFA
:102BB0000BF1FF3BA41B11938CE7D8E90023F7E846
:102BC0000201FDF7A1FD02460B46DDE90001FDF71C
:102BD000E5FB09F10109CDE90001B044A1E7DDE918
:102BE0002223C5E7109B93ED007B119B8DED087BA5
:102BF00013ED027B249B03EBCB01D1E90001DDE95E
:102C000012238DED207BFDF7C7FB02460B46FDF737
:102C10007BFDDDE90A23CDE91201DDE90801FDF7BD
:102C200073FDDDE9022380468946DDE90001FDF7F9
:102C30006BFD02460B4640464946FDF7ADFBDDE91C
:102C40000C238046894610461946FDF75DFDDDE9F7
:102C50001223FDF7A3FB02460B4640464946FDF70B
:102C60007DFE089B1893099B23F000431993029B58
:102C70001A93039B23F00043804689461B93DDE9AA
:102C80001A23C4E90089DDE91801FDF7CDFF4246AA
:102C90004B46A8B1DDE90401FDF736FDDDE900236F
:102CA000FDF77CFB01F100431D931C90DDE9082337
:102CB000DDE91C01FDF752FE079BC3E900015DE75A
:102CC000DDE92001FDF720FDDDE90A23FDF766FBC4
:102CD00001F100431F931E90DDE90223DDE91E018F
:102CE000E8E700BFAFF30080000000000000000034
:102CF0000000F03F000000002DE9F04F8DB0CDE95D
:102D00000901169A013A0192169AD6003344A6F1A7
:102D100008040893019B002B02DA0DB0BDE8F08F88
:102D2000089B73E902890022089340460023494624
:102D3000FDF75CFF054600284DD004F108030A9D0D
:102D40000B93A4F108094FF00008169B984504DB8B
:102D5000019B013B0193083CDCE79FED377B0B9B1C
:102D6000099F8DED047B8DED027BAB4605EB030ADD
:102D7000BBEC027B09EB070351EC170BD3E90023F3
:102D80008DED067BFDF7C0FC02460B46DDE9020136
:102D9000FDF704FB3B19D3E90023CDE90201DDE98E
:102DA0000601FDF7B1FC02460B46DDE90401FDF723
:102DB000F5FADA45CDE904013744D9D19DED027B1E
:102DC00005EB090383ED007B2B19C3E900013544B2
:102DD00008F10108B9E70022002340464946FDF703
:102DE000FBFE0028B4D00A9F04F1080A1FE09FED03
:102DF000127B099B8DED027B03EB0409B84607EBC0
:102E00000A0BD9E90023F8E80201FDF77DFC024630
:102E10000B46DDE90201FDF7C1FAD845CDE9020113
:102E2000B144EED13B19C3E9000101353744169B8B
:102E30009D42DCDB8CE700BF0000000000000000CA
:102E40002DE9F04F2DED048BBDB093464A9A0E93B9
:102E50005D1E02FB03F4EB001E930E9B1D909E1A59
:102E6000EB0000EBC40408330F9304EBC50704EB3D
:102E7000030AAB1A97ED007B04EBC60604EBC30410
:102E80000F9BCB188DED007B1C9393ED007B0F9B6C
:102E90005B44D6E900891393DDE90003424623F041
:102EA000004129F000438DED3A0B8DED027BFDF7DB
:102EB000BBFEDDE90223002859D0DAE90001FDF765
:102EC0006BFADDE9002301F10041FDF747FDC4E99C
:102ED00000010F9B5BF80300139B5B6803F100414B
:102EE000D7E90023FDF73AFDC6E900016E4B002249
:102EF000C7E900230E9B023B1293129A4A9B53434D
:102F00001D9A00200021CAE9000102EBC30A0E9AB3
:102F10004A9B134403F10053013BDB003693083313
:102F200038934A9BDB0016935B423993531E0BEB9D
:102F3000C3031F931C9B1793169B41EC170BC3F104
:102F4000FF2303F57F03F833CDE90A018DED107BF4
:102F500037930AEBC203A3F1100B129B002B8DEDEC
:102F6000087B19DA3DB0BDEC048BBDE8F08FD4E9E5
:102F70000001FDF711FA41EC120B2046139C42466A
:102F800009F1004394ED003B9FED451B43EC102BF2
:102F900031462BF0A2FBA9E71C9B93ED007BDBE9FC
:102FA000000153EC172B8DED207BFDF7F5F90F9BFE
:102FB0000AEB030494ED007B8DED007B9FED387BE5
:102FC0004A9BCDE9060103FB05F88DED027B1D9BB5
:102FD0000AEBC50603EBC808A9460E9B994535DBED
:102FE0001F9B73E9026700221F9330460023394676
:102FF000FDF7FCFD002840F0A981139B93ED007BB9
:103000001E9B00220AEB03053046002339468DED56
:10301000047BFDF7E1FD002848D0029B2293039B2F
:1030200003F100432393009B2493019B03F100438E
:1030300025939DED043B9DED062B9DED221B9DED03
:10304000240B214628462BF048FB72E1B6EC027BAC
:103050001E9B434451EC170BD3E900238DED047BF9
:10306000FDF752FB02460B46DDE90001FDF796F93C
:103070000F9B4344D3E90023CDE90001DDE90401BE
:10308000FDF742FB0B460246DDE90201FDF786F93A
:10309000169BCDE9020109F1010998449DE700BFA3
:1030A00000000000000000000000F03F9BED027BEC
:1030B000169B17995B448DED0C7B93ED007B51E9DA
:1030C0000401DDE920238DED147BFDF765F902464F
:1030D0000B4680468946FDF761F9DDE90423FDF7DB
:1030E00013FB4246CDE920014B4640464946FDF7D9
:1030F0000BFB32463B468046894630463946FDF753
:1031000003FB02460B4640464946FDF747F9DDE919
:10311000042306460F4610461946FDF7F5FA024607
:103120000B4630463946FDF737F902460B4643EC6D
:10313000182B0C9B1A930D9B23F000431B93089BA9
:103140001893099B23F00043199300220023FDF7F5
:1031500043FD002831D0DDE9200100220023FDF7E6
:103160003BFD002829D0069B2693079B23F00043B4
:103170002793DDE92601DDE91A23FDF70FF9149BFA
:103180002893159B23F000432993DDE92823FDF7BD
:1031900005F9DDE91823FDF701F9049B2A93059B46
:1031A00023F000432B93DDE92A23FDF7F7F8DDE94F
:1031B0003A23FDF7A9FA41EC180BDDE90A23DDE912
:1031C0000C01FDF7A1FADDE9022306460F46DDE911
:1031D0000801FDF799FA02460B4630463946FDF7DD
:1031E000DBF8DDE9042306460F46DDE90001FDF7C3
:1031F0008BFA02460B4630463946FDF7CDF8DDE93D
:10320000102341EC190BDDE90C01FDF77DFADDE936
:10321000002306460F46DDE90801FDF775FA024670
:103220000B4630463946FDF7B7F8DDE9042306467C
:103230000F46DDE90201FDF767FA02460B4630460C
:103240003946FDF7ABF8B0EE482AF0EE682AB0EE4A
:10325000491AF0EE691A41EC100B9DED203B214616
:1032600028462BF03AFA139BD3E90067369B2C963D
:103270000AEB0309389B0AEB030827F000432D9360
:10328000DDE92C01DDE91823FDF788F8DDE91A23D3
:10329000FDF7ACFC00286ED0009B2E93019B03F140
:1032A00000432F93DDE90601D5E90023FDF72CFA51
:1032B00002460B46DDE92E01FDF76EF8D4E9002346
:1032C000CDE9000130463946FDF71EFADDE90C2351
:1032D000FDF744FB02460B46DDE90001FDF75EF811
:1032E000029B3093C9E90001039B03F10043319332
:1032F000DDE90601D4E90023FDF706FA02460B4694
:10330000DDE93001FDF748F80F461399D5E90023B0
:103310000646D1E90001FDF7F7F9DDE90C23FDF7D9
:103320001DFB02460B4630463946FDF735F8C8E925
:1033300000019DED0A7B8DED027B9DED107B8DEDF7
:10334000007B9DED087B8DED067B129D399B9A4499
:10335000129B9DED027B013B1293179B8DED0A7B27
:10336000083B9DED007B1793379B8DED107B9B44B5
:103370009DED067BF1E50A9B32930B9B03F1004325
:103380003393DDE91401D4E90023FDF7BDF90246CA
:103390000B46DDE93201FCF7FFFF109B3493119BD4
:1033A00003F1004341EC180B3593DDE91401D5E935
:1033B0000023FDF7A9F902460B46DDE93401FCF7CD
:1033C000EBFFB0EE481AF0EE681A41EC100B9DEDE1
:1033D000082B47EC136B4146484634E600000000DA
:1033E0002DE9F04F8BB0CDE906014C1CDFF8F0B0B1
:1033F000E40005464FF000084FF0000A079B98458F
:103400000FDB069BA4F1080903EB0907B846012569
:10341000079BAB425CDD069B059300230497019359
:1034200043E0D5E900670022002330463946FDF726
:10343000D3FB002847D132463B4650465946FDF75C
:103440008DFA08F10108C5E900012544D6E7DBE95A
:103450000023F6E80201FDF757F902460B46DDE9C5
:103460000201FCF79BFFCDE902010AF1010ACB44FE
:10347000AA45ECDBD8F808300893D8F80C3003F1F3
:1034800000430993DDE90801DDE90223FDF73CF97A
:10349000049BE3E802010493019B01330193059B24
:1034A00023440593019B9D4209D0DDE9043B9FED38
:1034B0000A7BDDF804A08DED027B1E46D8E70135BE
:1034C0004F44A044A4E74FF0FF300BB0BDE8F08FAD
:1034D0000020FAE7AFF300800000000000000000C9
:1034E0000000F03F000000002DE9F04F87B00D46CE
:1034F0000390FFF775FF00283BDB039F4FEAC50AE7
:103500000024AC423ADAE3000593039B029703EBF5
:10351000C409002621E0059B08EB0301049B4344FA
:10352000D3E90023D1E90001FDF7EEF802460B468E
:10353000DDE90001FCF732FF0BF1010B5D45CDE940
:103540000001D044E7D1029BE3E802010136B44216
:10355000C9E900010293D14408DB9FED097BF30028
:103560008DED007B0493B846A346D4E7013457445D
:10357000C7E74FF0FF3007B0BDE8F08F0020FAE753
:1035800000000000000000002DE9F04F99B0012A72
:1035900003908B46144607DC7D4B0022C1E90023D3
:1035A000002019B0BDE8F08F022A0CD17849002024
:1035B00000220023CBE90001CBE90223CBE904017F
:1035C000CBE90623ECE7900028F06AFF059000287D
:1035D00000F0D480039B049003EBC4030B93A31E61
:1035E000E50017930B9B0E9305F1080310930BEB6B
:1035F000041306930F930B9B07930026049B079FCE
:103600009FED617BB246013643F8046F4FEAC6096D
:103610008DED087B0493A9F108031493B046A045EF
:1036200042DB049B1A68B2420BD003983146234612
:103630002BF0E4F8049A00941268039831462BF0BA
:10364000C4F80E9BEB1811939846039B4B441593BB
:103650000F9B0AF10207A7420A933FDBDDE90F3215
:1036600013440F93079B13440793179B9E4218DB49
:103670000B9E02272E447A1E304606992AF088FEB9
:10368000069B01372B44BC422E440693F3DC03987F
:10369000059A23465946FEF7CFFD05982EF0C7F947
:1036A0007EE7119B0E93A9E73B6812937B6823F09A
:1036B00000431393DDE91201DDE90823FDF7B4FAB5
:1036C00040B1049BC3F800803B6808937B6823F0FB
:1036D000004309932F4408F10108A0E7149B08EB6D
:1036E0000301079BD1E90001D3E90023FDF736F977
:1036F000CDE9080105EB0803DDF838A01693C146B3
:1037000099ED007BDDE90823FAE802018DED0C7BE1
:10371000FCF7FAFF0B460246DDE90C01FCF73CFE24
:10372000E9E80201169B4B45EAD19DED087B0A9B17
:10373000DDF8549083ED007B039B03EBC7030C93F0
:103740004FF0000A0C9BDDE90801D3E90023FCF7E8
:10375000DBFF0B460246D9E90001FCF71FFE0C9B7C
:103760000AF1010A2B445445C9E900010C93A9440C
:10377000E8D10A9BA84401372B446CE74FF0FF3097
:103780000FE700BFAFF30080000000000000000062
:103790000000F03F000000002DE98048C44B9FB0BE
:1037A000012202AF1A7011F061FE062016F0C6F970
:1037B00038B1C04B43610223037400234374837404
:1037C000C374BD4900234FF4865200242CF0CFFB74
:1037D00087F8604007F160020F2120460BF030FBB4
:1037E000082097F8605016F0A9F938B1B34B44742B
:1037F000C0E90535032303748474C4740023AE49FF
:10380000DFF800834FF4C4522CF0B1FBAC480FF04A
:1038100007FA98F800301BB1AA4B1B685B68984701
:10382000A94C236800255B68984787F8605007F12A
:1038300060020F2128460BF003FB082097F8606018
:1038400016F07CF938B1A14B4574C0E90536032365
:1038500003748574C574002397499D4D4FF4C45279
:103860002CF085FB9B480FF0DBF90023BB642B6831
:10387000DB88D80606D59FED980A07F1480101209C
:103880002BF0BFF897ED128AB5EE408AF1EE10FAF0
:1038900019D0082016F052F9064668B18F4B4361E3
:1038A00018EE100AFCF7D8FE0423C6E906013374AB
:1038B00000237374B374F3747F4900234FF40352ED
:1038C00030462CF054FB2B68B3F91820B3F91630AE
:1038D00000EE902A00EE103A2368F8EEE00A9B68AA
:1038E000B8EEC00A07F1600107F1540098470820BC
:1038F000D7F8549016F022F9064660B1784B436130
:103900004846FCF7A9FE0423C6E9060133740023E8
:103910007374B374F3743046674900234FF4035251
:103920002CF025FB0820D7F8609016F007F9064622
:1039300060B16C4B43614846FCF78EFE0423C6E938
:103940000601337400237374B374F3744FF4035299
:1039500030465949DFF8B0A1DFF8B0B100232CF0B0
:1039600006FB2E68F388B6F91400C3F3C0038AF887
:103970000030FCF75FFE02460B4600205A49FCF778
:10398000EDFFFDF799F908EE100AB6F91200FCF701
:1039900051FE02460B4600205349FCF7DFFFFDF7BE
:1039A0008BF9236851491B6897ED120A00EE900AC3
:1039B000B0EE481A584698474C4B9BED007AD3ED31
:1039C000007A4B4BF861B4EE677AF1EE10FA48BF1B
:1039D000F0EE477AC3ED007A464B0820D3F8049006
:1039E00016F0ACF8064688B1434B43614846FCF7F5
:1039F00011FE2DA3D3E90023FCF7B0FF0423C6E991
:103A00000601337400237374B374F37430462A4987
:103A100000234FF403522CF0AAFA0820DBF80090A0
:103A200016F08CF8064690B1344B43614846FCF7DB
:103A300013FE0B4602462C490020FCF78FFF04239F
:103A4000C6E90601337400237374B374F37430460B
:103A5000194900234FF403522CF089FA234B082014
:103A6000D3F8009016F06AF8064690B1244B4361F3
:103A70004846FCF7F1FD0B4602461B490020FCF7C7
:103A80006DFF0423C6E90601337400237374B37415
:103A9000F374002308494FF4035230462CF067FAC0
:103AA000FB69002B36E000BF0000000080842E413F
:103AB000B65B0020458803000C26030061880300E4
:103AC00091880300780700207C070020AE8803005F
:103AD00034070020DE88030000000047EF88030061
:103AE00009890300248903000000F03FD03700203B
:103AF000C8370020BC0700203D8903005E89030011
:103B000081890300B95B0020B85B0020D437002016
:103B100000007A44C0F2F88098F800301FED048A63
:103B2000002B40F08F80062016F008F8002840F0A7
:103B3000F080A049A04EDFF8D08200234FF48652D7
:103B40002CF015FA2B689D4AB3F91A309C4D83F37B
:103B500002032B6052F8233033600FF0B7FB2B6861
:103B6000032B03D1D8F800002AF06BFADFF89C92FF
:103B70002A68D9F80000336890F87411914240F037
:103B8000D1805B6800F275109847D9F800300022A8
:103B900083F8742105F022F8D8F8000005F042FA05
:103BA0002268884B9A4215D1062015F0C7FF38B11C
:103BB000854B436102230374002343748374C374ED
:103BC0007C4900234FF486522CF0D1F905F030FAED
:103BD0002AF06DFA7D4BD3ED007A7D4BF8EEE77A53
:103BE00093ED007AC7EE886AC6EE877AFDEEE77A33
:103BF00017EE903A18B2774B1880236880B25B6A50
:103C00009847064600287FD0C0F30713012B724C5B
:103C100000F09380032B00F09280002242F4803267
:103C2000D4E9011023690968090500F18D806B4909
:103C30006B484FF47F722BF0ECFC4FF47F716748B8
:103C40002BF0DEFC9AF80030002B3FF46CAFDFF86D
:103C5000C0A12368BAF80420DFF8B891DB6ADFF866
:103C60009C8102F07F02002102209847D9F80030A1
:103C70009FED5C0A1B684046984798ED007AF0EE8D
:103C8000007A57EE087A064617EE900AFDF76FF9AC
:103C9000554BC3E90001554B216801221A70BAF84F
:103CA0000420D1F82CA0D9F8001002F07F020420E3
:103CB000D04708B94D4B18700820D8F8009015F07F
:103CC0003DFF8046B0B14A4B43614846FCF7C4FC17
:103CD0000B46024647490020FCF740FE0423C8E992
:103CE000060188F81030002388F8113088F8123067
:103CF00088F813302F4900234FF4035240462CF02C
:103D000036F9002EBFF60FAF0121084611F010FC66
:103D1000C2E0394B4361022303740023437483746C
:103D2000C37406E7354A1B6892ED001A344ADBED8E
:103D3000000A92ED000A98472EE720226EE7314AEA
:103D40002369D4E901106EE7196821F40061196054
:103D5000036821480B2106F00F069847032E16D062
:103D6000022E4FF0000316D14FF0A8621343D4E99E
:103D70000126B469002C56D059020ED417491848B0
:103D800040F27F322BF045FC40F27F3157E74FF095
:103D900050730022EAE71A46E8E7126812053BD49E
:103DA0000E490F4840F293322BF033FC40F293312E
:103DB00045E700BF0C260300880700200409002007
:103DC000C437002094290300D6890300740700201B
:103DD000C8370020B4590020DC1C0300EE89030022
:103DE0001F8A0300CDCCCC3D101F0020B75B002004
:103DF000A08903000000F03FC2890300CC370020F7
:103E0000D037002010000100840700203807002070
:103E1000F437002078070020B94803F0C0634FF062
:103E2000A0720B21A047B749B74B4B604FF400631A
:103E30008B60F36913B1B248012298472A68B34BEB
:103E40006C4688B053F8223002AAB149C2E9051382
:103E50004FF400739383AF4B42F8103FAE480023FA
:103E60004FF4E65116F04AF80620A54615F066FE16
:103E700038B1AA4B43610223037400234374837453
:103E8000C37400234FF48652A3492CF070F8A44A5F
:103E900001231370A34A13709FED978B2AF0C6FC81
:103EA000A04B1B783B61C7E90210002B00F0FC839C
:103EB0009D4CDFF8C8929D4D11F0D8FA9C4B94F8B8
:103EC000008093F800A083F80080D9F800302846DD
:103ED0001B6A984740B92AF0A9FC964B95ED000A59
:103EE000C3E9000102F0E0FB934B1B68DB8813F091
:103EF000010F40F26C7608BF4FF48066304628F020
:103F0000CFFA0546C8B9082015F018FE40B18B4B12
:103F100043618B4B83610323037445748574C574BB
:103F200000234FF4C2527C492CF021F801210846AD
:103F300011F0FEFA7B4A00231370D9F800303146A5
:103F40001B69284698477F4B93F800900646B9F1C5
:103F5000000F40F0F1814FF000097B4BC245B3F9EF
:103F60000030BB611BD02478012C00F0FB81022CB7
:103F700000F00A829CB906200EF0E2FD062015F042
:103F8000DDFD30B1714B43610223037444748474CA
:103F9000C474614900234FF486522BF0E8FF0024DB
:103FA00011F050FAC7E90C44DFF8ACB1BC63A0468D
:103FB000FC617C61A0B2864200F2188228462DF096
:103FC00036FD07F15405B9F1000F4CD0DFF8B0A170
:103FD00007F124040C22514620462DF03AFD00281A
:103FE00041D02AF023FC5A4BC3E9000194E80700B2
:103FF0004FF0000B8AE80700204604F0EDFFC7F8F9
:1040000054B09FED540AC5E901BB294620462AF069
:1040100031FE20B19AE8070084E80700D946D7EDC1
:10402000097ABB6A3B66F1EE677AC7ED197AD7ED7C
:104030000B7AF1EE677AC7ED1A7AB9F1000F08D062
:10404000454B464A1B6892ED000A5B6907F1600028
:10405000984707F16002104641492AF098FD07F1A0
:10406000600002F005FBFA693E4B002A40F03A82FC
:10407000002E40F04E822AF0D9FB652871F1000134
:1040800003DBB8F1000F00F08A82BB6923B37B69C0
:10409000FA699342B8BF1346F3B1BA6993421BD091
:1040A000314AB86931496C468AB0012818BF1146B7
:1040B00002AA2F4850611362B86940F20133938419
:1040C0002C4BC2E9060142F8103F134800234FF47D
:1040D000325115F013FFA5461F4E274833681B6B5E
:1040E0009847254908462AF09FFC00237B651D4818
:1040F000C5E9013346E000BF0000000000000000F9
:10410000DC1C0300B8370020ED2B0100140900204F
:10411000378A0300030000010C260300408A0300D5
:10412000BD5B0020B15B0020B45B0020D8370020CD
:10413000B35B00205005002034070020538A0300A1
:10414000C08C0300B75B0020B4590020818A0300B3
:1041500058050020BD37863588070020CC37002061
:104160008C070020A837002042B60300979E03006A
:104170002E8B030005000001AC0700207C07002007
:10418000DC37002029462AF023FDB5EE400AF1EE87
:1041900010FA04D0834984482A4611F0CBFF20202E
:1041A00011F086FA33689B6A04469847002840F06D
:1041B00003829FED7E0A7E497B48DFF82C922AF02D
:1041C00021FD002C40F03083002800F02D832AF0E0
:1041D0002DFBD9E90032C61A764B1B7861EB020839
:1041E000F3B9754B1B68D3F830A04FEAEA73B245B8
:1041F00073EB080314DA082015F0A0FC38B16F4BFC
:104200004474C0E9053A032303748474C47400231E
:104210004FF4C6526A492BF0AAFE664A0123137076
:104220006848DFF894A1D0E90010D9E900325B1AA0
:10423000DAF800104C6B62EB00024FEAE4799C4222
:1042400079EB020008DA8C6B4FEAE479A34272EB57
:104250000900BCBF1C469146CA88D00709D55548FD
:104260000378012B05D8B44279EB0803BCBF0223C5
:104270000370DFF85CB152079BF8003040F1BD815C
:10428000012B00F2B781CA6BD317B24273EB08035C
:1042900080F2B381062015F051FC38B14A4B4361DE
:1042A00002230374002343748374C37400234449BA
:1042B0004FF486522BF05BFE02238BF80030DAF8C5
:1042C0000030D3F840B04FEAEB73B34573EB08030B
:1042D00080F29381082015F031FC60B13B4B4361C3
:1042E0004EF660239BFBF3F38361032303740023E7
:1042F00043748374C374324900234FF4C6522BF0C5
:1043000036FEDAF80030B3F9101029B95B881B07C4
:1043100002D501202AF02AFBDAF80030B3F9102088
:10432000012A05D15B88580702D500202AF027FB17
:10433000274B03221A7060E12AF078FA254BD3E963
:104340000023801A61EB0301234BD3E9002382424F
:104350008B41BFF600AE214B1B6807F124005B695F
:104360009847FAE521200EF0EBFB062015F0E6FB5E
:1043700000283FF40EAE1A4B43610223037400235E
:1043800043748374C37404E664200EF0D9FB0620E2
:1043900015F0D4FB00283FF4FCAD124B43610474CC
:1043A000EDE700BFA8370020AC0700200AD7A33BE9
:1043B0009C070020B45B0020340700204D8B0300D5
:1043C0000C260300081F00206C8B03008A8B03005F
:1043D000B25B002058050020101F00207807002045
:1043E000A08A0300BF8A0300001F00200023C7E942
:1043F0001133C7E91333C7E90F33714B07F12402B7
:104400001B680092D3F814A007F13C0207F148039F
:104410002946D04710F01003824661D110F0020FF8
:1044200026D007F148007B6004F09CFDBA6C7A65E9
:10443000FA6CBA653A6D634BFA65DBF8002093EDD0
:10444000000AD26807F1540090475F4A7B691278EE
:1044500001337B6162B15D4A7B68127842B1C7E982
:104460001833BB66DBF8003007F16000DB69984762
:104470001AF0010F2DD007F13C0004F02DFDFB6B6D
:104480003B663B6C7B667B6CBB66514B514A1B6841
:1044900092ED000A1B6907F160009847D7ED0C7A8E
:1044A00097ED187AFB6977EE877A97ED197AC7ED61
:1044B0000C7AD7ED0D7A77EE877A97ED1A7AC7EDF9
:1044C0000D7AD7ED0E7A77EE877A0133C7ED0E7A43
:1044D000FB613B691AF0040F18BF994608F1010807
:1044E000013467E5D7ED077AD7ED0C6AF8EEE77A85
:1044F00086EEA77AD7ED0D6A83ED007A86EEA77A6D
:10450000D7ED0E6A83ED017A86EEA77A83ED027A03
:10451000AEE5B8F1000F06D0B0457FF4B6AD2E4B36
:1045200000221A60B1E5062015F008FB48B12B4BBC
:1045300043610223037480F8118080F8128080F8B0
:10454000138000234FF4845225492BF010FD224A9A
:10455000136801330A2B13607FF497AD082015F020
:10456000EDFA48B11F4B43611F4B83610323037472
:10457000002343748374C374194900234FF4C25257
:104580002BF0F5FC0121084610F0D2FF002E3FF47D
:104590007CAD0EF0C7FF00202AF0FBF975E5062080
:1045A00015F0CCFA0028CCD0104B436102230374E1
:1045B00046748674C674C4E79FED0D0AFBE500BF20
:1045C0007C070020D0370020B95B0020B85B0020BA
:1045D00088070020D4370020B4370020E08A030089
:1045E0000C2603000A8B0300C08C0300F58A03002D
:1045F000CDCC4C3D022B3FF462AEDAF80030DFF850
:10460000B8B2DA889BF800A0910703D55A88120740
:1046100000F1D380BAF1000F00F0FD80BAF1020F73
:1046200040F0F980186CC117801B61EB080102F0A3
:104630006BF89FED8C0A8C498C482AF0E3FA9FEDC9
:104640008C0A8C49044628462AF014FB04B1E0B9D0
:10465000864B854C0FCB84E80F0095E80700854B0F
:1046600083E807008449814807F160022AF011FAC3
:1046700081492A4628462AF08AFA804B2946D3E9FE
:10468000002307F1600001F0BDFF7D4B1B785BB19B
:104690007C4B1B7843B17C4B1B782BB97B4B1B7835
:1046A000012B01D106F080F8794CDFF81482002349
:1046B00023702AF0BBF8FB68D8F80020C01ABB684A
:1046C00061EB0301D31782428B4107DA714DD5E9C3
:1046D000002382428B41B8BFC5E900016E4D2AF02C
:1046E000A5F8D5E90032C01A41F2893361EB020125
:1046F000984271F1000121DB2AF098F8C5E9000128
:10470000644DD5E90096B9F1010F76F1000315DB90
:10471000082015F013FA48B1604BC661C0E90539AD
:1047200004230374002343748374C3745C4900231B
:104730004FF402522BF01BFC85ED008B4F4B594D73
:1047400083ED008B2B7803F0FF06002B40F0868072
:1047500001232B70D8F8003003F10A0C2CEAEC7C12
:104760004FF4004E314640F2E7304FF47A720023A6
:10477000CCFB0E01FCF740FB26F076FF2B7893B1C3
:10478000062015F0DBF930B1474B43610223037477
:1047900046748674C674424900234FF484522BF049
:1047A000E6FB00232B70414B1B7813B1404826F0E9
:1047B0006FFA01232370FFF771BBBAF1000F7FF48A
:1047C0002DAFB44279EB08032ADA082015F0B6F9C8
:1047D000064690B1374B43614FF47A72002320466E
:1047E0004946FCF7B9FAC6E906010423337486F892
:1047F00011A086F812A086F813A0002328494FF4D0
:10480000035230462BF0B3FB002108462AF0AEF8E5
:1048100001238BF800304FF0FF306FF0004106E7C6
:10482000A01B69EB080102E7184B234C1B78022BF5
:1048300002D02378012B04D129F0F8FF1F4BC3E9E4
:10484000000129F0F3FF2378104A012B4FF00003F9
:10485000C9E9000108BF23701370DCE726F01EFED3
:104860009FE700BF6F12833A9C070020AC0700202F
:10487000CDCC4C3DE83700208C070020F81E0020EE
:10488000B95B0020B85B0020B35B0020B45B002064
:10489000B65B0020281D0020301D0020C88B0300BF
:1048A0000C260300B55B0020ED8B0300BA5B0020F3
:1048B000181E0020A88B0300B25B0020081F0020F8
:1048C00074070020000000002DE9F04F824F834D57
:1048D0008BB0044619B34FF6FF733B802B68B3F9D6
:1048E0001A30002BC0F29780062015F027F938B156
:1048F0007B4B436102230374002343748374C374AA
:10490000784900234FF486522BF031FB0FF0D8F892
:104910004FF0FF300FF0B6F80FF0F0F87BE0724A7E
:10492000B2F90030108083421FBF70490B7823F02A
:1049300008030B702DF051F86D4BC3E900012B6893
:10494000D3E90A016B4BC3E90001B7F90030013329
:1049500005D13C802DF041F8674BC3E900012B687D
:10496000B3F91A30002B54DA002C52DD082015F070
:10497000E5F8064680B1614B43612046FBF75AFEDD
:104980005F4B0022FBF7EAFF0423C6E906013374FC
:1049900000237374B374F3743046524900234FF408
:1049A00003522BF0E4FA20460FF06CF82B68B3F9B1
:1049B0001A60A6F16402944232DA0A2015F0BEF8B9
:1049C0000546C8B14F4B43613046FBF733FE4C4BB5
:1049D0000022FBF7C3FFC5E906012046FBF72AFECC
:1049E000474B0022FBF7BAFF0623C5E908012B74E9
:1049F00000236B74AB74EB7400234FF442522846CF
:104A000038492BF0B4FA0FF05BF820460FF03AF873
:104A100001E0002CCADA0BB0BDE8F04F04F0DEB8BC
:104A200006F1640294422BDD0C2015F087F8054650
:104A3000D8B1354B4361354B83613046FBF7FAFD06
:104A40002F4B0022FBF78AFFC5E908012046FBF740
:104A5000F1FD2B4B0022FBF781FF0823C5E90A017A
:104A60002B7400236B74AB74EB7428461D49002330
:104A700044F240022BF07BFA0FF022F8204649E77F
:104A8000B3F9186006F164039C4243DD0C2015F075
:104A900055F80546D8B11E4B43611C4B8361304627
:104AA000FBF7C8FD164B0022FBF758FFC5E90801CC
:104AB0002046FBF7BFFD124B0022FBF74FFF0823F8
:104AC000C5E90A012B7400236B74AB74EB740023EB
:104AD00044F2400293E700BF3C0C0020380700205E
:104AE000148F0300142503003E0C0020C15B00203E
:104AF000481F0020401F0020381F0020228F030085
:104B0000000059403F8F03007C8F03006091030039
:104B1000BA8F0300B7F90030581C7CD0643B9C422C
:104B200079DADFF88CA22CF058FFDAE90023801A3A
:104B300061EB0301984B984271F100016BD22CF0AC
:104B40004CFFDAF80030B7F900B0DAF804A00093AF
:104B500081460E20884614F0F1FF0546002848D013
:104B6000009B8E4AB9EB030668EB0A03A6FB0267BB
:104B700002FB03778A4B4361A4EB0B00FBF75AFD62
:104B8000884B0022FBF7EAFEF60B46EA4746FF0B8E
:104B9000CDE9000130463946FBF780FD7CA3D3E91F
:104BA0000023FBF7DBFE02460B46DDE90001FBF7C5
:104BB000D5FEC5E906015846FBF73CFD794B0022BE
:104BC000FBF7CCFEC5E908012046FBF733FD754B2A
:104BD0000022FBF7C3FEC5E90C67C5E90A014FF0E7
:104BE000000A0A232B7485F811A085F812A085F815
:104BF00013A000236C4945F2C00228462BF0B7F9F8
:104C00000EF05EFF20460EF03DFF684B1C80684BA7
:104C1000C3E90098FFE62B68B3F91A20A242B3F962
:104C20001820C8BF5C836FF495710A4494427CDA03
:104C3000B3F930306FF4F97213449C4275DA2046B0
:104C4000FBF7F8FC574B0022FBF788FE06460820CE
:104C50000F4614F073FF48B1564B4361C0E9066735
:104C600004230374002343748374C37400234E49E4
:104C70004FF403522BF07BF92B68B3F91830A3F2F1
:104C80001F339C4248DA082014F058FF48B14A4BC1
:104C90004361C0E9066704230374002343748374EB
:104CA000C37400234FF403523F492BF060F904F220
:104CB000F3140EF0D1FE4FF4FA73B4FBF3F42B6847
:104CC000D3E90A26D3E90E73D71B66EB0306B7F5C3
:104CD000160F76F100032BD20A2014F02FFFA8B193
:104CE000364B4361364BC0E906342C4CA7FB0423FA
:104CF00004FB0633D20B42EA4342DB0B0021C0E93E
:104D000008230623037441748174C1742649002367
:104D10004FF441522BF02BF92B68D3E90A011A8E7C
:104D2000C3E90E01A2F5FA721A860EF095FE72E63C
:104D30000934A4B2202202A9204610F09DFEBDF83D
:104D40000830059A0133ADF80830049BDB1946EBB7
:104D50000202CDE90432DDE906329F4276EB020120
:104D600001D3134301D1CDE90676089BBB42099BD1
:104D700002AAB3414FF000014FF02003204638BF94
:104D8000CDE9087610F03CFE0E4B00221A70C3E706
:104D900000000000389C8C4101001E0040420F00C2
:104DA000F88F030000005940142503003C0C00203C
:104DB000381F0020449003005990030071900300B5
:104DC00050910300C15B00202DE9F04F054687B0EC
:104DD000214FBB68029304AA5B68002138469847BC
:104DE000002832DBDDE9044A1C4BDFF87480A4FBA9
:104DF00003B203FB0A230393039915A3D3E900230A
:104E00005846FBF7F9FF4FF0FF39039BD94578EB84
:104E10000303064619D3A5FB04B405FB0A440CA3FF
:104E2000D3E9002321465846FBF7E6FFD94578EB46
:104E30000404034609D3864207D301220092029A52
:104E40000021146838463246A04707B0BDE8F08F0D
:104E500000CA9A3B00000000B01E0300002D310183
:104E6000FFC99A3B000000002DE9F04F9FB0824639
:104E7000039117461C460025387810B9284600F0E3
:104E8000A6BD252809D00399D0470028C0F29F85E8
:104E90007B1C01350593059FEEE71822002110A821
:104EA0002CF00FFE7B78252B00F0BC800023791CB2
:104EB00098469E469C4618460E4611F8012B2B2A12
:104EC00000F0E38000F2DA80202A00F0E180232A5B
:104ED00000F0E1802BB19DF8483043F040038DF89D
:104EE0004830B8F1000F05D09DF8483043F020035A
:104EF0008DF84830BEF1000F05D09DF8483043F0E2
:104F000010038DF84830BCF1000F05D09DF84830F3
:104F100043F008038DF8483028B19DF8483043F03D
:104F200004038DF848309DF8483003F044014429CB
:104F300003D16FF386138DF848309DF848300E96F4
:104F400043F080032A2A8DF8483040F0A9809DF86C
:104F5000493043F001038DF84930731C1A782E2A2A
:104F60009DF849200CBF0121002161F341028DF819
:104F700049200CD15A1C0E925A782A2A40F0A0805F
:104F80009DF8492042F004028DF8492002331A7836
:104F90006C2A00F0C18000F2A380682A00F0A9808A
:104FA0006A2A00F0C2804C2A00F0C78013F8012B57
:104FB0000593782A8DF84B2000F209816D2A00F2C2
:104FC000C980692A00F20381572A00F2E280412A4F
:104FD00004D0A2F14503022B00F2F9809DF84A307B
:104FE00002F0DF020421A2F1410961F30203D9F1C9
:104FF00000029DF849108DF84A3042EB090262F335
:10500000C7110A068DF84910CBB200F11F8103F0D9
:105010007802182A40F009816FF3C6038DF84930F1
:105020000023F8E08DF84B30BB1C05939DF8493008
:105030009DF84A20DE0702F0070040F1098154F88C
:10504000041B0491002908DA9DF8481041F004017E
:105050008DF84810049949420491590740F10081A4
:1050600054F8046B002E80F2FF809DF849306FF3F6
:1050700041038DF849304FF0FF36F5E02D2A0DD071
:10508000302A7FF427AF012316E74FF0010C13E716
:105090004FF0010E10E74FF001080DE701200BE77C
:1050A0000EA812F0DBFF0E9BB3423FF457AF9DF802
:1050B00048201390C00F60F341028DF848204DE75F
:1050C0000EA812F0CBFF9DF848301490C3F34002B5
:1050D00042EAD07262F341038DF848300E9B56E7E6
:1050E000742A26D07A2A7FF461AF9DF849200621E0
:1050F0000CE05A78682A9DF8492006D1012161F315
:10510000C6028DF84920023350E7022161F3C6023E
:105110008DF84920013349E75A786C2A9DF84920D7
:1051200001D10421EBE70321F0E79DF84920052197
:10513000ECE79DF849200721E8E7BDF8482022F474
:10514000F04222F0020242F4804242F00202ADF844
:105150004820DFE76E3AD3B201229A4040F2824300
:105160001A429DF8493039D112F0240F61D1D1078C
:105170002DD59DF84A2003F07803A3F140080321C0
:1051800061F30202D8F100038DF84A2043EB0803D3
:1051900041E0A2F15801C9B2012000FA01F111F475
:1051A000624F7FF41BAF40F6010319429DF849306E
:1051B0001AD111F4043F0AD09DF84A2060F302028C
:1051C00003F07803402B8DF84A207FF429AF9DF837
:1051D000483043F001038DF8483021E79DF84A201C
:1051E000022161F30202EBE79DF84A10022003F06E
:1051F000780360F30201402B8DF84A1002BF9DF83E
:10520000481041F001018DF84810632A7FF408AF7F
:10521000003B18BF01239DF84820C2F340010B4317
:1052200063F341028DF8482000E713F0380FCED128
:10523000F6E69DF84A20032113F0780F61F302028D
:105240008DF84A2014BF01230023E4E70123E2E79D
:105250009DF948100029B4BF13994FF0FF31FBE6C8
:105260009E077FF508AF149E00230428CDE9133371
:105270009DF8493007D1990705D49DF949100029B7
:10528000ACBF06260D2602F00702012AC3F3C303B2
:1052900032D1DA1E042A04D8DFE802F02045452086
:1052A00020002268012B4FEAE271CDE910211BD1C9
:1052B0009DF94020D117CDE9102104349DF84820F4
:1052C000069292074FD0059B03993A4650462AF022
:1052D00080F90028C0F27B830544DCE554F8042BF8
:1052E000D117CDE91021E9E7022BE6D111B242F343
:1052F000C032CDE91012E0E7022A24D1DA1E042AD6
:1053000004D8DFE802F0181010181800012B54F828
:10531000042B4FF0000114D0022BCDE91021CDD188
:1053200092B21092CAE7073424F00704F4E80201AD
:10533000CDE91001C2E754F8042B1092002211921B
:10534000BCE7D2B2CDE7042A08D1073424F0070421
:10535000D4E900010834CDE91001AFE7032AADD14B
:1053600054F8042BDDE79DF84B80B8F1780F3FF639
:1053700092ADB8F1570F5CD8B8F1250F00F0A480BA
:10538000B8F1240F7FF687ADB8F1410F04D0A8F132
:105390004503022B3FF67FADDDE91023002BC0F261
:1053A0004D810699080700F14C81C1F300194FEABD
:1053B0004919C3F30A51C3F31303002940F0448190
:1053C00052EA030014BF4FF0010C4FF0000CD8025A
:1053D00040EA5250D702CDE90C70B8F1460F47EAC7
:1053E000010740EAE17008BF4FF06608384300F05B
:1053F000B881BCF1000F10D01B0343EA125317030E
:105400003A4618464FF0000C002880F25681BCF155
:10541000000F40F05981CDE90C730D9B43F0004320
:10542000A1F2FE3B0D930021DDE90C230F46052080
:1054300060E1A8F15802202A3FF62DAD01A151F8F4
:1054400022F000BF0F560000974E0000974E00005C
:10545000974E0000974E0000974E0000974E0000B8
:10546000974E0000974E000099530000974E0000A1
:10547000BB550000CF550000995300009953000020
:1054800099530000974E0000CF550000974E000042
:10549000974E0000974E0000974E000015560000F2
:1054A0000F5600005F550000974E0000974E000019
:1054B000D9540000974E00000F560000974E000090
:1054C000974E00000F56000003994046D047002831
:1054D000C0F27D820135DEE4002E109F3BDB3146B9
:1054E00038462CF016FB002F3FF4D5AC3E18F31BCA
:1054F0004FF000099DF84A2012F01001069100F0CB
:105500005B82023312F04002DDF84C80089218BF33
:10551000149ACDF81C80434418BF9B18049A002AA3
:1055200040F36582D31A9DF8482004935007C2F3D4
:10553000800B00F15C82510640F14C82B9F1000F02
:1055400007D003994846D0470028C0F24082013571
:10555000D94630223FE23846FBF7B2FCC6E7109846
:10556000002800F024820DF17503009312AA17ABF6
:10557000002112F089FDBDF84A3003F0EF0343F437
:10558000F04343F010030746ADF84A304FF00009EE
:10559000002E0CDB9DF848200DF17503DB1B6FF32B
:1055A00086129E428DF8482001D9F31A1393002FDA
:1055B0003FF471AC0DF175066DE0109B8DF85C3019
:1055C0004FF000090DF15D0617AF012392E7069B2E
:1055D0001F0758BFC3F30019DDE9102354BF4FEA7A
:1055E00049194FF02B09002B06DA524263EB4303B3
:1055F000CDE910234FF02D090DF175030093DDE97E
:10560000100117AB12AA12F03FFD0746C0E74FF09A
:105610000009F1E7109A072B3FF63DACDFE803F0F5
:105620000C04060C08080C0C157034E4158032E4E8
:10563000EB17C2E900532EE415602CE44FF02D095E
:10564000B7E64FF02B09B4E640F2FF70814231D14A
:1056500008F10108A2495FFA88F8134311F808100D
:1056600001F003011ED101290BBF492369234E21FB
:105670006E210CBF462266228DF85C309DF84830C2
:105680008DF85D106FF386138DF85E208DF848302D
:105690000DF15F0617AFF31BB9F1000F3FF42AAF0E
:1056A000013327E7012915BF6E234E2361214121D4
:1056B0001A46E1E74FF0000C89E6921801F1FF313C
:1056C00040414FF0010C9FE6CDE90C20A5E65208C1
:1056D00042EAC3725B08B3F1333F59460BF1010B49
:1056E000F5D200FB03FCA2FB002301F1020B634493
:1056F000013F01211BF1020FE9DB09B1CDE90C23C8
:10570000BBF1000FDDE90C322EDCCBF10401A1F17D
:1057100020000BF11C0B02FA0BFB22FA00F0CA402E
:10572000CB40079208F0DF0243EA0B03472A43EA23
:1057300000037DD1F91C01DBBE422BDAA8F102087F
:10574000002E5FFA88F87CDD9DF84820920606F16D
:10575000FF3676D4B6F1000B18BF4FF0010B721C68
:1057600027E04FF0000B5EE6023342F100020CA886
:10577000CDE90C3229F0FEFEDDE90C320BF1FF3BE6
:105780000137DB185241002A0BF1FF3BF9DACDE972
:105790000C32B5E79DF848209006A6EB07064DD4DD
:1057A000B6F1000B18BF4FF0010BF2194FF066086D
:1057B0004AD4102AA8BF10229FED477B8DED0E7BA7
:1057C00010200B90DDE90E01002A3FD1079A1B182B
:1057D00042EB0101B1F1805F47D2CDE90C31069B6C
:1057E000B8F1660F03F0200240F0C180002F47DCC3
:1057F00030238DF85C30002A74D1002E40F3BA813A
:105800002E238DF85D3087B17B42B342A8BF33466B
:105810009DF84A201393002BA6EB0306D4BF002368
:10582000012363F345128DF84A200DF15E0340E039
:10583000B8F1660F4FF0000BB7D090E74FF0000BB8
:10584000B3E74FF0000B8AE70022B5E7400840EAD3
:10585000C1704908CDE90E010EA8CDE9082329F051
:1058600089FE089A099B013AACE75B0843EAC173D9
:105870000CA84908CDE90C31013729F07BFEAEE7D1
:1058800017AB0B9900290BDD0BA90CA8CDE906324B
:1058900029F088FE069B079A03F8010B013FF0D11F
:1058A0001397AAB9002E40F363812E2103F8011B40
:1058B0000027002E1FDD0B9A002A1CDD0BA90CA867
:1058C000069329F06FFE069B013E03F8010BF0E7FB
:1058D0002E2203F8012BEBE7000000000000000877
:1058E00046C503002E238DF85D30002F9DD0002E7D
:1058F0008ADC0DF15E03BBF1000F4CD114961E46FD
:1059000008F0DF03452B21D1002FBABF7F422D23A2
:105910002B23632FC8BF64227370C2BFB7FBF2F39F
:1059200003F1300102FB13774FF00A0286F8008082
:10593000CABFB17002360336B7FBF2F303F1300190
:1059400002FB13733033317073700236139B002BDC
:105950002BDC149B002BD4BF002301239DF84A208D
:1059600063F3861200238DF84A20337092E60BA968
:105970000CA8069229F016FE069A8DF85C003028D5
:1059800018BF07F1FF3712B9002E40F3F3802E2322
:105990008DF85D3049E71E46013B16F8012C302A90
:1059A000F9D02E2A08BF1E46AAE70123D6E7734E78
:1059B0008146771F05239DE5110748BF0133A1E507
:1059C000104609920399D0470028099A05DA1FB0BA
:1059D000BDE8F08F2022DDF810B0594600290BF108
:1059E000FF3BEDDC049BCDF810B02B445D1AB9F100
:1059F000000F05D003994846D0470028E7DB013562
:105A0000089B002B79D09DF94930002B29DBDFF86A
:105A100070913B46187819F8002052079B4603F115
:105A200001033FD49DF84A30EF1B98065F4407D42A
:105A30004246002A08F1FF383BDC079B3B449F1A93
:105A40009BF800002E280AD10399D0470028BEDB1E
:105A5000B8F1000F07F1010731DC0BF1010B5D46D6
:105A600038E0B94699F800007028C84609F10109E4
:105A700013D1EF1B149D47443D44EB1B002B34DC3A
:105A8000039933464246504629F0A3FD00289EDB89
:105A90003844049E0546064465E00399D047002833
:105AA000E0DA94E706930399D0470028069BB1DA21
:105AB0008DE703993020D0470028B9DA87E70399AA
:105AC0003020D04708F1FF38C0E70399D0470028BD
:105AD000FFF67DAF287819F800305907A84605F180
